:020000040800F2
:1000000018120020A10100082B1E0008D91C0008AE
:10001000291E0008AD020008BD47000800000000CE
:100020000000000000000000000000003B1E00086F
:100030002703000800000000391E00083D1E0008CC
:10004000BB010008BB010008BB010008BB010008A0
:10005000BB010008BB010008BB010008BB01000890
:10006000BB010008BB010008BB010008BB01000880
:10007000BB010008BB010008BB010008BB01000870
:10008000BB010008BB010008BB010008BB01000860
:10009000BB010008BB010008BB010008BB01000850
:1000A000BB010008BB010008BB010008BB01000840
:1000B000BB010008BB010008BB010008BB01000830
:1000C000BB010008BB010008BB010008BB01000820
:1000D000BB01000885210008BB0100089121000830
:1000E000BB010008BB010008BB010008BB01000800
:1000F000BB010008BB010008BB010008BB010008F0
:10010000BB010008BB010008BB010008BB010008DF
:10011000BB010008BB010008BB010008BB010008CF
:10012000BB010008BB010008BB010008BB010008BF
:10013000BB010008BB010008BB010008BB010008AF
:10014000BB010008BB010008BB0100082D1E000810
:10015000BB010008BB010008BB010008BB0100088F
:10016000BB010008BB010008BB010008BB0100087F
:10017000BB010008BB010008BB0100080000000033
:10018000BB010008BB010008DFF810D000F07CF8CC
:100190000048004701510008AFF30080181200200A
:1001A0000648804706480047FEE7FEE7FEE7FEE711
:1001B000FEE7FEE7FEE7FEE7FEE7FEE7D51E0008E6
:1001C000890100082DE9F05F0546002092469B4614
:1001D00088460646814640241BE02846414647465D
:1001E000224600F041F853465A46C01A914110D3B6
:1001F00011461846224600F028F82D1A67EB010830
:100200004F4622460120002100F01FF817EB00099D
:100210004E41201EA4F10104DFDC484631462A4647
:100220004346BDE8F09FD2B201E000F8012B491E21
:10023000FBD270470022F6E710B513460A46044683
:100240001946FFF7F0FF204610BD202A04DB203AB4
:1002500000FA02F1002070479140C2F1200320FA19
:1002600003F3194390407047202A04DB203A21FA17
:1002700002F00021704721FA02F3D040C2F12002BF
:100280009140084319467047064C074D06E0E06868
:1002900040F0010394E8070098471034AC42F6D3CD
:1002A000FFF776FFCC530008EC530008FEE770B56B
:1002B00004460021084604EB8102491CC2F890055F
:1002C0001029F8D300224FF48065A118521C81F840
:1002D0001C01AA42F9D3207060700121A170C4F8FA
:1002E000D00521764022A271607684F81C0584F83E
:1002F0001D1584F81F0584F81E05090204F11C0071
:10030000FFF798FF294604F58E70FFF793FF12213F
:1003100004F22650FFF78EFF3E2104F5A760FFF799
:1003200089FF002070BD704772B6FEE72DE9F041ED
:100330000446876D00F066F9064694F835000025FE
:10034000022806D08020606584F834500120BDE882
:10035000F0812068016821F0160101602068416980
:1003600021F080014161206C08B9A06C20B12068A7
:10037000016821F0080101602068016821F0010195
:1003800001600CE000F03EF9801B052807D9202011
:100390006065032084F8350084F83450D7E720687E
:1003A0000068C007EED194F85C103F208840B86028
:1003B000012084F8350084F834500020C7E790F815
:1003C0003510022903D080214165012070470521A5
:1003D00080F835100068016821F0010101600020FB
:1003E0007047000070B5044600F00CF90546601C2B
:1003F00002D004480078044400F004F9401BA042F5
:10040000FAD370BD0C0000202DE9F84FDFF8BCA135
:100410000022012503264FF00F090AF1040BAAF16F
:10042000040E00BF0B6805FA02F42340A34270D10A
:100430000F7907F00307012F01D0022F16D187682B
:100440004FEA420806FA08FC27EA0C07D1F80CC06C
:100450000CFA08FC4CEA070CC0F808C04768A74330
:100460000C79C4F3001494403C4344600C79E44399
:10047000A4070AD0C4684FEA420C06FA0CF7BC4342
:100480008F6807FA0CF72743C7600C7904F0030460
:10049000022C12D1D40800EB840CDCF82040570762
:1004A000FF0E09FA07F824EA0804D1F8108008FAC8
:1004B00007F848EA0408CCF8208004684FEA420CA8
:1004C00006FA0CF7BC430F7907F0030707FA0CF79D
:1004D000274307604C6814F4403F70D03C4C2768B9
:1004E00047F480472760246822F0030704F480441F
:1004F0000094384C07EB040CDCF8084897074FEAE7
:10050000177809FA08F7BC43334FB84202D10027E5
:1005100024E054E0314FB84201D101271EE0304FB2
:10052000B84201D1022719E02E4FB84201D103276A
:1005300014E02D4FB84201D104270FE02B4FB842F1
:1005400001D105270AE02A4FB84201D1062705E06C
:10055000284FB84201D1072700E0082707FA08F71B
:100560002743CCF80878DAF800405746D1F804C0A1
:100570009C435FEACC2C00D51C433C60DBF8004078
:100580005F46D1F804C09C435FEA8C2C00D51C4325
:100590003C60DEF800407746D1F804C09C435FEA37
:1005A0008C3C00D51C433C60084F083F3C68D1F8A8
:1005B00004C09C435FEACC3C00D51C433C60521C09
:1005C000102AFFF42FAFBDE8F88F0000083C01406F
:1005D0004438024000300140000002400004024064
:1005E00000080240000C02400010024000140240CB
:1005F00000180240001C02400AB1816170470904E2
:10060000FBE7000001488068704700000C000020F4
:10061000D0F8DC0302F003BFD0F8DC0302F009BF1E
:10062000006803F041BD006803F042BDC1EB011159
:1006300000EB8100002200F81A2F4270C272827211
:1006400010467047C1EB011100EB810090F84C009F
:100650007047C1EB011100EB8100806B704710B552
:10066000044690F8D403012809D0012084F8D4036B
:10067000206803F028FD002084F8D40310BD022078
:1006800010BD2DE9FF4F83B00546DDE9117690F8E6
:10069000D403DDF8408093468A4601281CD0CAEB7B
:1006A0000A11012305EB810485F8D4334FF00009CA
:1006B00084F819900698207584F815A084F826709F
:1006C0000BF07F00A07551462846FFF7AFFF5FEAA9
:1006D0000B6005D5E37505E0022007B0BDE8F08F9B
:1006E00084F81790286803F0E3FC012F06D1B8F1D5
:1006F000010F03D110B9BC2E00D9BC2684F8188094
:10070000B0B22085CDF80080CDE9017028685A4646
:100710005146069B03F042FD85F8D493DDE7704710
:100720002DE9F0030E46DDE906C9DDE90874C1EBE9
:10073000061100EB81010225CA7581F82630BCF153
:10074000000F0AD081F82A50002463B1012B31D068
:10075000022B28D0032B16D125E04FF0030881F897
:100760002A804C76F0E7BCF1010F0CD11AB18A7ED9
:10077000012A19D007E0D7B9012281F83D2000E015
:10078000C2B181F82A50C1F82C904F6381F84C40D7
:100790008C634E7581F84D4082790068BDE8F003A6
:1007A000143103F08BBD12B191F83C20E8E791F8C9
:1007B0003D20E5E781F82A40E5E700002DE9F0411A
:1007C00006680446304603F07AFC012877D1206899
:1007D00003F030FF002872D0206803F02BFF800266
:1007E00003D521684FF400104861206803F022FF10
:1007F000C00203D521684FF480104861206803F0DF
:1008000019FF400103D521684FF0806048612068DE
:1008100003F010FF800702D521680220486120689C
:1008200003F008FF800018D521684FF000504861A0
:10083000D6F84004C00710D11021304603F016FC52
:10084000304603F0F7FB607A022803D101212068CB
:1008500003F0CCFE2046FFF7DFFE206803F0EAFE3F
:10086000C00102D5204601F0AAF9206803F0E2FE9B
:10087000000705D5204600F0C8F821680820486127
:10088000206803F0D7FE800124D5206803F012FD14
:10089000074600254FF0010815E000BF05F00F01E5
:1008A00008FA01F038420DD006EB4510D0F80005EB
:1008B000E9B20004204603D500F048FE02E01CE047
:1008C00001F002F86D1C6079A842E7D821684FF06A
:1008D00000704861206803F0ADFEC043C0060CD430
:1008E0002068816921F010018161204601F0B1F991
:1008F0002068816941F010018161BDE8F081F8B59F
:10090000040005D094F8D5032568002610B106E050
:100910000120F8BD84F8D463204600F029F80320B4
:1009200084F8D503B5F1A04F00D1A671206803F07B
:100930004DFB207C8DF8000094E80F0003F0E6FAF0
:10094000022560B90121206803F0B0FE38B9207C8F
:100950008DF8000094E80F0003F0E0FD10B184F87A
:10096000D553D5E7012084F8D5030020F8BD000059
:1009700010B586B0044614216846FFF75BFC20687A
:10098000B0F1A04F2FD119480021026842F00102B6
:100990000260006800F0010005904FF4C050009024
:1009A0000220CDE90101032003900A20049069464A
:1009B0000F48FFF729FD0D48001D016841F0800137
:1009C00001600A481430016841F480410160006808
:1009D000002200F4804005901146432000F0AAF860
:1009E000432000F099F806B010BD000030380240F6
:1009F00000000240D0F8DC0302F096BDD0F8DC0322
:100A000002F096BD006803F038BED0F8DC0302F0B7
:100A100046BD10B5044690F8D40301280DD001203E
:100A200084F8D4030121206803F0E8FA206803F079
:100A3000FBFA002084F8D40310BD022010BD10B5CD
:100A4000044690F8D403012809D0012084F8D40387
:100A5000206803F059FE002084F8D40310BD022062
:100A600010BD00000248816802781144816070471F
:100A70000C0000200B4810B5016841F400710160C2
:100A8000016841F480610160016841F48071016096
:100A9000032000F06FF80F2000F006F800F024F8B3
:100AA000002010BD003C024070B50D4D04464FF4CF
:100AB0007A712878B1FBF0F00A490968B1FBF0F0CF
:100AC00000F00AFB48B9102C07D200222146501E24
:100AD00000F030F800206C6070BD012070BD000097
:100AE0000C000020180000200A4808B5016841F4F5
:100AF00080410160006800F4804000900548001FBC
:100B0000016841F080510160006800F08050009061
:100B100008BD000044380240002809DB00F01F0235
:100B2000012191404009800000F1E020C0F800114F
:100B300070470000F0B40E4B1B680C46C3F3022351
:100B4000C3F10705042D00D90425191D072901D279
:100B5000002300E0DB1E012606FA05F1491E2140B4
:100B600099409E40761E16403143F0BC04F012B905
:100B70000CED00E0064900F0070208684FF6FF039D
:100B8000184040EA0220034A104308607047000002
:100B90000CED00E00000FA052DE9F0470E460500D7
:100BA00065D0DFF81481D8F80000F7B200F0070034
:100BB000B04207D288F80070D8F8000000F00700B3
:100BC000B04254D128683D4C810712D5400703D567
:100BD000206840F4E05020602878000703D52068A2
:100BE00040F4604020602068A96820F0F0000843CD
:100BF00020602878C0072DD030496868083901285E
:100C000012D0022813D0032811D0096889070029BF
:100C10002DDA216821F0030101432160FFF7F2FC86
:100C2000814641F2883A0EE009688903EFE70968D6
:100C30008901ECE7FFF7E6FCA0EB0901514502D979
:100C40000320BDE8F0872068696800F00C00B0EB75
:100C5000810FEFD1D8F80010404601F00701B142F2
:100C600007D90770006800F00700B04201D00120EA
:100C7000E7E72878400705D52068E96820F4E050C8
:100C8000084320602878000706D52068296920F4E9
:100C9000604040EAC100206000F038F82168084A4E
:100CA000C1F30311515CC84006490860064800685A
:100CB000FFF7FAFE0020C4E7003C0240083802407B
:100CC0005052000818000020100000200448054978
:100CD00000680968044AC1F38221515CC84070472A
:100CE00018000020083802406052000804480549F6
:100CF00000680968044AC1F34231515CC84070473A
:100D0000180000200838024060520008154810B54D
:100D1000006810F00C02144813D04110042A0FD0C0
:100D2000082A0ED10F4C241F2268236802F03F02CC
:100D30005B0207D52068C0F38810A0FB010106E024
:100D4000084610BD2168C1F38811A1FB00010023F2
:100D5000FFF738FA2168C1F30141491C4900B0FB93
:100D6000F1F010BD083802400024F4002DE9F84FDE
:100D700004006ED02078DFF84C93C007A9F1040579
:100D80004AD009F104000168C1F38101012908D0AA
:100D90000068C0F3810002280AD1D9F8000040029F
:100DA00006D52868800337D560680028E1D033E095
:100DB0006068B0F5803F10D0B0F5A02F286810D043
:100DC00020F480302860286820F480202860606843
:100DD000A8B1FFF717FC06460DE0286840F4803004
:100DE000F4E740F480202860F7E700BFFFF70AFC33
:100DF000801B642873D828688003F7D50CE0FFF7C0
:100E000001FC064605E000BFFFF7FCFB801B6428E1
:100E1000F0D828688003F7D42078DFF8AC82800708
:100E20004FF0000A3ED5A748001D016811F00C0FD5
:100E300008D00068C0F3810002280BD1D9F8000067
:100E4000400207D42868800716D5E068012800D141
:100E500012E033E1E068B8B10120C8F80000FFF704
:100E6000D1FB064605E000BFFFF7CCFB801B022844
:100E7000C0D828688007F7D52868216920F0F800D5
:100E800040EAC10028600DE0C8F800A0FFF7BAFBF7
:100E9000064604E0FFF7B6FB801B02281FD828682F
:100EA0008007F7D42078000722D5864F87486169EC
:100EB000703771B101210160FFF7A4FB064604E021
:100EC000FFF7A0FB801B022809D838688007F7D5F8
:100ED0000EE0C0F800A0FFF795FB064605E082E0B3
:100EE000FFF790FB801B02287DD838688007F7D475
:100EF0002078400768D5DFF8CCB100270BF13C0B18
:100F0000DBF80000C0000BD4DBF8001041F080518A
:100F1000CBF80010DBF80000012700F080500090B3
:100F20006B4E3068C00510D4306840F4807030607B
:100F3000FFF768FB009005E0FFF764FB0099401A9B
:100F4000022850D83068C005F6D55E4EA0686C36D1
:100F500001280FD00528306810D020F00100306043
:100F6000306820F004003060A068B8B1FFF74AFB99
:100F700000900FE0306840F00100F4E740F004001A
:100F80003060F7E7FFF73EFB0099411A41F28830E5
:100F9000814266D830688007F4D50EE0FFF732FB57
:100FA000009007E0FFF72EFB0099411A41F28830CC
:100FB000814256D830688007F4D42FB1DBF8001096
:100FC00021F08051CBF80010A069C8B33D49091D3C
:100FD0000968C1F3810102294AD00228504607D08E
:100FE000C8F8600000E03CE0FFF70CFB04463BE083
:100FF0004746C8F86000FFF705FB064605E000BF5E
:10100000FFF700FB801B02282BD828688001F7D44B
:10101000D4E907010843A16A2E4A490802EB0141BD
:10102000626A41EA8211084394F82C1040EA016197
:10103000C9F8001001203866FFF7E4FA044606E01C
:101040003EE000BFFFF7DEFA001B022809D828683F
:101050008001F7D534E000BFFFF7D4FA001B022867
:1010600002D90320BDE8F88F28688001F4D427E076
:101070000128F7D0D9F80000E26900F4800191421C
:101080001CD1226A00F03F01914217D147F6C0718E
:10109000626A0140B1EB821F10D1A26A4FF0FF33A8
:1010A00000F4403103EB5202B1EB024F06D194F849
:1010B0002C1000F07060B0EB016F01D00120D1E77F
:1010C0000020CFE70438024000004742800E47422C
:1010D000007000400000FFFF10B5401EB0F1807F9F
:1010E00001D3012010BD4FF0E02460610F21601793
:1010F00003F050FE0020A06107202061002010BDF9
:1011000070477047F8B5016804460868CA684B69BB
:1011100010F00F0F4FF0000559D003F0010602F454
:101120009077374365D0C10705D0D10503D5616CF1
:1011300041F001016164410705D5D90703D0616C15
:1011400041F002016164810705D5D90703D0616CC4
:1011500041F004016164010707D502F02001314329
:1011600003D0616C41F008016164616C00293AD0E0
:10117000800604D5900602D5204600F0E2FE2068E5
:101180004069616CC0F38010090700D460B3204649
:1011900000F0B0FE20684069400621D52068143078
:1011A00050E8001F21F0400140E80012002AF5D16C
:1011B000E06BA8B16E490165E06BFFF700F900280C
:1011C00011D0E06B016D01B0BDE8F0400847830627
:1011D0000FD593060DD52046BDE8F84000F0B1BE0E
:1011E0002046FFF78EFFF8BD2046FFF78AFF6564B3
:1011F000F8BD266B2023012E7DD1C6067BD5D606F1
:1012000079D508684868009048694FF002064006A2
:1012100041D5E16B086840680004000CE8D0A28D5D
:101220008242E5D9E085C869B0F5807F2DD020687D
:101230000C3050E8001F21F4807140E80012002AB1
:10124000F5D12068143050E8001F21F0010140E87A
:101250000012002AF5D12068143050E8001F21F058
:10126000400140E80012002AF5D184F8423025639D
:1012700020680C3050E8001F21F0100140E80012F7
:10128000002AF5D1E06BFFF751F86663A08DE18D80
:10129000401A81B22AE0A08DE18D401A81B2E08D22
:1012A0000028A5D00029A3D022680C3252E8000FF4
:1012B00020F4907042E80007002FF5D12068143028
:1012C00050E8002F22F0010240E80027002FF5D15E
:1012D00084F84230256320680C3050E8002F22F05B
:1012E000100240E80023002BF5D166632046FFF78B
:1012F00007FFF8BDFFE705062BD5150629D594F89D
:1013000041002128F5D1A068B0F5805F01D12069A6
:10131000B0B1206A411C2162216800784860E08CED
:10132000401E0004000CE084E3D12068C16821F075
:101330008001C1602068C16841F04001C160D8E708
:10134000206A0088C0F308004860206A801C206280
:10135000E5E74006CDD55006CBD5CA68204622F039
:101360004002CA6084F8413000F0EFF8C1E70000A5
:10137000E51E000870B5040004D094F84100002573
:1013800010B106E0012070BD84F84050204600F006
:1013900023F8242084F841002068C16821F400511A
:1013A000C160204600F02EFE2068016921F49041C2
:1013B00001612068416921F02A0141612068C1680A
:1013C00041F40051C1606564202084F8410084F834
:1013D00042006563002070BD70B586B004461421DC
:1013E0006846FEF727FF2B4E226800212A48022379
:1013F00003240725B24222D1274A1432166846F048
:1014000010061660126802F010020592026842F09F
:1014100001020260006802AA00F00100059082E863
:1014200032006002CDE9000369461C48FEF7ECFF7C
:10143000002211462520FFF77DFB252025E0184ED0
:10144000B24224D1144A1032166846F4802616603F
:10145000126802F480220592026842F002020260E1
:10146000006802AA00F00200059082E832004FF402
:101470004060CDE9000369460A48FEF7C5FF002237
:1014800011462720FFF756FB2720FFF745FB06B044
:1014900070BD0000001001403038024000000240E2
:1014A000004800400004024070472DE9F84304461C
:1014B00090F84100984616460D46202802D002209A
:1014C000BDE8F88385B17EB100206064212084F8F6
:1014D0004100FFF797F8A6848146E684A06820279C
:1014E000B0F5805F02D003E00120E9E7206910B188
:1014F0002E4600250EE000260CE08021204600F05C
:1015000007FEA8B9C6B116F8010B21684860E08C47
:10151000401EE084E08C4B464FF00002CDF8008086
:101520000028EAD14FF04001204600F0F1FD40B123
:1015300084F841700320C3E735F8020BC0F30800BC
:10154000E3E784F841700020BAE770472DE9F05FC7
:10155000054600680E46074603F064F8C6EB061120
:1015600040074FF007084FF0040905EB810401D54F
:10157000484633E03146286803F054F8C0054FF080
:10158000080A08D507EB46114FF48070C1F808052A
:1015900084F84DA028E03146286803F043F800079E
:1015A00005D507EB4611C1F808A506200CE0314629
:1015B000286803F037F8400509D507EB46114FF4CA
:1015C0008060C1F80805092084F84D000CE0314620
:1015D000286803F027F800060AD5802007EB46119B
:1015E000C1F8080584F84D803146286802F06BFD8B
:1015F0003146286803F016F880052868314604D57E
:1016000002F061FD4FF4007059E103F00BF8C007E0
:101610004FF0200B4FF0010A4FF000084ED007EBBF
:101620004617C7F808B5E07E012807D184F81B806B
:10163000D7F8040520F48030C7F80405A87930B144
:10164000206BD7F81015C1F31201401AA06384F87B
:101650004DA0C4F844805246C7F808A594F8260067
:1016600030B1022804D003280AD0012808D013E0A2
:101670003146286802F027FD1020C7F808050BE066
:10168000D7F8000540F00050C7F8000584F84C205A
:1016900031462846FFF743F8A879012807D1208D65
:1016A000A16B0144491EB1FBF0F0C00704D014F84F
:1016B0003C0F80F001002070BDE8F09F31462868A3
:1016C00002F0B0FF80060CD507EB4611C1F808B553
:1016D000A07E0128F0D184F81BA0032084F84D00DF
:1016E000B4E03146286802F09DFF80074FF0050BFB
:1016F00075D507EB46100221C0F8081594F84D2067
:10170000012A16D0062A19D0072A1CD0092A1AD075
:10171000052A33D0032A63D0042A7DD0082A7ED03C
:10172000022AC9D094F84C2031462846FEF7F7FF2C
:10173000C2E784F84D1084F84CA0F3E784F84D100C
:1017400084F84CB0EEE784F84D10626C521C626471
:10175000022A10D9C4F84480A27E4146012A07D14A
:10176000E1762177D0F8041521F48031C0F8041512
:1017700084F84C90D6E784F84C1022E084F84D10A1
:10178000E27E012ACED194F82620032AF3D1A26C5E
:10179000521CA264022A11D9C4F8488084F81B8024
:1017A000616C032901D284F81CA0D0F8041521F43F
:1017B0008031C0F8041584F84C9002E084F84C1095
:1017C000B0E794F8261009B10229ABD1D0F8001582
:1017D00021F0804141F00041C0F80015A2E724E06B
:1017E00084F84D10E27E012A9CD184F84C10D0F888
:1017F000041541F48031C0F80415D0F80C1541F0FF
:101800004001C0F80C15D0F80C1521F02001C0F8EB
:101810000C15D6E700E002E084F84D10ABE784F841
:101820004D10606C401C6064A2E73146286802F0ED
:10183000F9FE400610D507EB46114020C1F8080517
:1018400084F84DB0A07E08B9C4F8448031462868B9
:10185000BDE8F05F02F037BC3146286802F0E2FED6
:10186000C0067FF565AF94F82600032803D028B1A1
:10187000022803D00FE0C4F8448006E0C4F8448096
:10188000A87910B1E07E012818D184F84D90314636
:10189000286802F018FCE07E01280FD107EB461003
:1018A00084F81B80D0F8041521F48031C0F80415A9
:1018B000D0F80C1541F02001C0F80C15102007EBF2
:1018C0004611C1F80805F7E62DE9F05F0546006806
:1018D0000F46064602F0A6FEC7EB071140074FF081
:1018E000040A05EB810405D506EB4711C1F808A5EC
:1018F000072089E03946286802F094FE80064FF000
:1019000000084FF001094FF0020B28D506EB4711F4
:101910002020C1F80805607E0326012809D184F83B
:10192000198084F84CB084F84D603946286802F07C
:10193000CAFBA07E012810D1E07E00280DD194F8CA
:101940002600012801D084F81B9084F84D603946A8
:10195000286802F0B8FBC4F84480BDE8F09F39461F
:10196000286802F05FFE800506D506EB47114FF4AC
:101970000070C1F8080549E03946286802F052FEB7
:10198000C00720D0C4F844803946286802F04AFED7
:10199000400606D506EB471184F819904020C1F89F
:1019A0000805E07E48B106EB471084F81B80D0F8AC
:1019B000041521F48031C0F8041506EB47114846A0
:1019C000C1F8089520E03946286802F02BFE400651
:1019D0000ED5052084F84D00A07E08B984F8199032
:1019E000C4F844803946286802F06DFB402028E0A6
:1019F0003946286802F016FE00070DD506EB4711A0
:101A00000820C1F80805062084F84D0039462868EA
:101A1000BDE8F05F02F057BB3946286802F002FECD
:101A2000C00613D5C4F8448084F84DA0607E18B970
:101A3000207E08B984F819903946286802F043FBE3
:101A4000102006EB4711C1F8080586E739462868DB
:101A500002F0E8FD000626D5A87970B1606C401C44
:101A60006064022811D9C4F84480524684F84CA01E
:101A700039462846FEF753FE13E0072084F84D0050
:101A80003946286802F01FFB0BE006EB471084F88C
:101A90004CB0D0F8001521F0804141F00041C0F871
:101AA00000158020CDE73946286802F0BBFD4005CF
:101AB00009D5092084F84D003946286802F003FB57
:101AC0004FF48060BDE73946286802F0ABFD80071F
:101AD000BBD506EB47125846C2F808B594F84D102E
:101AE000012917D003293AD004293ED005294CD02A
:101AF00006294DD0072901D00929A6D184F84D0027
:101B0000616C491C6164022948D9C4F8448084F896
:101B10004CA04DE084F84D0084F84C9094F82600D9
:101B2000022801D0032843D1A87928B994F83D00B0
:101B300080F0010084F83D00A879012838D1606B5D
:101B400010B3218D0844401EB0FBF1F0C0072FD028
:101B500094F83D0080F0010084F83D0028E084F80E
:101B60004D00E17E012916D022E084F84D0084F872
:101B70004C00E07E01281BD184F81B80D2F80405BC
:101B800020F48030C2F8040512E084F84D0002E031
:101B900084F84D00052084F84C0009E084F84C00DE
:101BA000D2F8000520F0804040F00040C2F8000567
:101BB00094F84C2039462846FEF7B1FDCDE67CB5B9
:101BC00004680546D4F840040190D4F8400420F09D
:101BD0002E0000900198800709D50198C00702D017
:101BE0002846FEF715FD009840F00200009001988D
:101BF000000724D5009840F00800009001984007A5
:101C00001AD5687A022803D0E87901280CD00FE0B1
:101C10000198C0F341400228286803D0012102F056
:101C2000E5FC05E00221FAE74EF66020C4F8040462
:101C30002846FEF7E3FE02E02846FEF7DBFE0198A9
:101C40008006009802D540F020000090C4F84004BF
:101C50007CBD2DE9F041024600680646016AC1F3E9
:101C6000434301F00F07C1F30A15022B2ED1002DBB
:101C70002CD0C7EB071102EB8104E16A002925D0C3
:101C8000A26B636B2A449A4222D82A4602F0D6FC01
:101C9000E06A2844E062A06B2844A06306EB47108A
:101CA000D0F81015228DC1F3C941AA420ED10029E6
:101CB0000CD0D0F8001521F0804141F00041C0F86F
:101CC000001514F83C0F80F001002070BDE8F08191
:101CD000042084F84C00F9E7FEE7000030B587B037
:101CE00014216846FEF7A6FA19480024016841F05D
:101CF00010010160016801F010010591016841F0D7
:101D000080010160016801F080010591016841F0E6
:101D100002010160016801F002010591016841F0D2
:101D20000101016000680B4D00F0010005900122E7
:101D300040212846FEF760FC402000900120CDE9BC
:101D40000104694628460394FEF75EFB07B030BDE8
:101D500030380240001002400C4810B50A490160BA
:101D60004FF4E1314160002181600C22C160C0E983
:101D700004128161C161FFF7FDFA002803D0BDE8BC
:101D80001040FEF7D1BA10BD0010014084000020C1
:101D90000C4810B50A4901604FF4E131416000215F
:101DA00081600C22C160C0E904128161C161FFF74A
:101DB000E1FA002803D0BDE81040FEF7B5BA10BD27
:101DC00000480040CC00002010B501220F49104807
:101DD00001F0D4FA08B1FEF7A7FA0E490C4801F059
:101DE00097FF08B1FEF7A0FA0B49094801F090FFF0
:101DF00008B1FEF799FA064802F06EF8002803D001
:101E0000BDE81040FEF790BA10BD0000ED3E00089E
:101E1000140100203800002058000020014801F083
:101E20000DBD000014010020FEE7FEE70148FEF7AB
:101E3000C5BC0000F806002070477047FEF712BED0
:101E400030B593B030216846FEF7F4F914210CA8A0
:101E5000FEF7F0F91D480025016841F0805101604E
:101E6000006800F0805011901948016841F48041E9
:101E700001600068022400F480401190012000906D
:101E8000000401908001CDE9064004200890A820BC
:101E9000CDE9090407200B906846FEF767FF08B1FB
:101EA00072B6FEE70CA90F2081E831004FF4A05074
:101EB0000F904FF48050109005210CA8FEF76CFE97
:101EC000002801D072B6FEE713B030BD40380240A2
:101ED000007000400248016841F4700101607047E1
:101EE00088ED00E010B5806B0021C185C184FFF74B
:101EF00008F910BD01680C3151E8002F22F49072EE
:101F000041E80023002BF5D10168143151E8002F7E
:101F100022F0010241E80023002BF5D1016B0129D9
:101F200009D101680C3151E8002F22F0100241E87C
:101F30000023002BF5D1202180F8421000210163FD
:101F4000704708B590F84210222901D0022008BD40
:101F500082684FF480539A4201D1016921B1816AAC
:101F60009A421BD04AB10AE00268816A5268C2F301
:101F700008020A80816A891C08E0026972B102685D
:101F8000526802F07F020A70816A491C8162C18D29
:101F9000491E0904090CC18503D01BE00268526880
:101FA000F1E70168CA6822F02002CA600168CA68C5
:101FB00022F48072CA6001684A6922F001024A6113
:101FC000202180F8421000214163026B012A03D0D6
:101FD000FFF76AFA002008BD016301680C3151E87F
:101FE000002F22F0100241E80023002BF5D10168F8
:101FF0000A68D20602D50A6849680091818DFFF708
:102000007FF8E7E770B5044600680169E26821F4EB
:102010004051114301612169A068E2690843616987
:10202000114308432168CA6849F20C639A4302438A
:10203000CA6020684169A26921F44071114341617D
:1020400031492068884202D03049884202D1FEF7E7
:102050004DFE01E0FEF73AFEE269002319216425F6
:102060003226B2F5004F626828D0A0FB0101930F21
:102070009200FEF7A7F80146B0FBF5F06FF01802EA
:10208000504301EB800006EB0010B0FBF5F000F0D0
:10209000F002B1FBF5F002EB0012B1FBF5F06FF0CE
:1020A0001803584301EB800006EB0010B0FBF5F07D
:1020B00000F00F0021681044886070BDA0FB010192
:1020C00092185B41FEF77EF80146B0FBF5F0020185
:1020D000B1FBF5F06FF01803584301EB800006EBFD
:1020E000C000B0FBF5F000F0F80002EB4002B1FBDD
:1020F000F5F0584301EB800006EBC000B0FBF5F0B3
:1021000000F00700D6E70000001001400014014075
:102110002DE9F843984617460D460446089E24E0EC
:10212000701C22D0FEF76EFAA0EB0800B0421AD85D
:10213000CEB12068C168490717D5802D15D0402D34
:1021400013D00168C94309070FD40168002540680E
:1021500000902046FFF7CEFE0820606484F84050CF
:102160000120BDE8F8830320FBE72068006835EA1A
:10217000000004D00020B842D2D00020F1E70120B6
:10218000F9E700000148FEF7BDBF00008400002011
:102190000148FEF7B7BF0000CC00002010B50022B8
:1021A0004FF6FF7300EB8204B4F8904524040BD47F
:1021B0009A4207D002F00F0300EB830041F4004184
:1021C000C0F89015D0B210BD521CD2B2102AE9D37B
:1021D0001A46F7E710B501F019F9002010BD827812
:1021E000012A07D102220274012242740022428293
:1021F0008182C2820022114600F00FB87FB51C46D2
:10220000012501AE0023009586E80E002A462146EE
:1022100001F0BFF904B0002070BD70B50446012084
:10222000A3780546012B0BD0022B08D1204600F0E5
:10223000D1FD58B1032809D0022800D1A57070BD86
:10224000A160A28125760221A17070BDA570002138
:10225000217670BD7FB51D4690F81D35089C03B1F1
:1022600000240123CDE90031CDE9022400231A46E0
:10227000294601F08EF904B0002070BD1FB500237F
:102280001446CDE900310822CDE902231A46214641
:1022900001F07FF904B0002010BDFEF7A3B80000E4
:1022A00070B50546002005F5A76500BF00EB80046A
:1022B00004EBC00405EB4404E67B0A348E4201D0F3
:1022C000FF2909D1A679964201D0FF2A04D1E479E9
:1022D0009C4206D0FF2B04D0401CC0B20228E5D39C
:1022E000FF2070BD102907D200EB8100B0F89015D7
:1022F000C1F30E01C0F890150020704730B4857806
:10230000029C012D0FD141F080010174062141741E
:1023100003214282B1EB122F02D140F2094100E0C9
:1023200000218182C482224630BC1946FFF775BF66
:102330000A8803781A440A8001780844704700002C
:10234000F8B50D46064600F11C04B1F5807F0AD9A8
:102350000DA002F00FFD0E4802F00CFD0DA002F0E2
:1023600009FD0320F8BD23464FF4007200213046DA
:102370000095FFF7C3FF0028F4D12A4621463046D6
:10238000BDE8F84001F020B94552524F523A2000C2
:10239000345300080A000000F8B50C460546B1F5B4
:1023A000806F0AD90EA002F0E5FC0F4802F0E2FCB3
:1023B0000EA002F0DFFC0320F8BD05F58E731E466B
:1023C0004FF48072002128460094FFF797FF002801
:1023D000F2D1224631462846BDE8F84001F099B9CD
:1023E0004552524F523A2000AC5200080A000000F9
:1023F000F8B51C461646B3F5806F17D8B6B141F450
:10240000407200F58E731D4600210094FFF776FFA1
:10241000002815D16978032912D129788A1EA24291
:1024200000D814460021A2B2AD1C0FE00AA002F0B1
:10243000A1FC0B4802F09EFC0AA002F09BFC0320CA
:10244000F8BD6B5C891C06F8013B89B29142F8D358
:1024500000213170F8BD00004552524F523A200021
:10246000F05200080A00000001004FF0000004D004
:10247000012901D0022901D00220704701207047B4
:10248000F8B50546D0F888050126C46960790628A4
:1024900064D2DFE800F003632D033D4805F11C0022
:1024A000ED8B092D0DD90921ADF8001005E0694625
:1024B000FFF73EFF4178212905D0BDF80010A94261
:1024C000F5D302201DE0017884F82610417884F8C5
:1024D000271041882185017984F82A10417984F8F0
:1024E0002B10817984F82C10B0F80700E085E8E71C
:1024F000E18D284600F08CF910B1032803D02DE0BF
:10250000042060712AE016A002F034FC16A01FE03F
:1025100000221146284600F040FC052108B103289E
:102520001CD161711AE00021284600F043FC10B173
:10253000032809D012E001206071D5F8E0250221BE
:1025400028469047002609E005A002F013FC16A0DB
:1025500002F010FC22A002F00DFC02263046F8BD6D
:102560004552524F523A2000436F6E74726F6C2086
:102570006572726F723A204849443A204465766920
:10258000636520476574205265706F7274204465DE
:102590007363726970746F7220726571756573749C
:1025A000206661696C656400436F6E74726F6C20A5
:1025B0006572726F723A204849443A2044657669E0
:1025C0006365205365742070726F746F636F6C2045
:1025D00072657175657374206661696C656400006D
:1025E0000A00000038B500F001FB2748254C41687F
:1025F000491C416080290FD10021416023A002F0D5
:10260000B9FB26A002F0B6FBE0780090A3786278D0
:10261000217826A002F0AEFB6168032088470128DC
:1026200004D0022804D0032804D006E024A002E04D
:1026300028A000E02CA002F09DFB61680C208847D8
:10264000012804D0022804D0032804D006E02CA0DE
:1026500002E030A000E035A002F08CFBA168002071
:102660008847012802D137A002F084FBA16804202A
:102670008847012804D1BDE8384037A002F07ABB72
:1026800038BD00002000002000000020D2A1B8CBFF
:10269000D7B4CCACD6B5A3BA0D0A00004C58094C3F
:1026A00059095258095259090D0A00002564092593
:1026B00064092564092564090D0A0D0A000000005B
:1026C0007374617274B0B4BCFCB5A5BBF7210D0A7C
:1026D000000000007374617274B0B4BCFCCBABBB7F
:1026E000F721A3A10D0A00007374617274B0B4BC29
:1026F000FCB3A4B0B421A3A1A3A10D0A0000000063
:10270000D3D2C5CCC2CCB0B4BCFC3120B5A5BBF78C
:10271000210D0A00D3D2C5CCC2CCB0B4BCFC312050
:10272000CBABBBF721A3A10D0A000000D3D2C5CCCF
:10273000C2CCB0B4BCFC3120B3A4B0B421A3A1A3DB
:10274000A10D0A0073656C656374B0B4BCFCB0B4D1
:10275000CFC20D0A00000000D7F3C5CCB0B4BCFC5A
:102760005570B0B4CFC20D0A000000000023838072
:10277000C380837202810160704770B5837A002440
:10278000BBB901238372002311E0C5888688B54256
:1027900012D00668755D01F8015BC5886D1CADB28D
:1027A000C5800689B54200D1C4805B1C9BB29342B0
:1027B000EBD38472104670BD8472184670BDF0B5BC
:1027C000837A0024EBB901238372002317E0858804
:1027D000C7886E1CBE4217D0B0F808C0664500D14D
:1027E00097B1076811F8016B7E5585886D1CADB2F5
:1027F00085800689B54200D184805B1C9BB29342E0
:10280000E5D384721046F0BD84721846F0BD000016
:1028100008B5B1F5806F0AD909A002F0ABFA0A48F1
:1028200002F0A8FA09A002F0A5FA032008BD009161
:1028300000F58E734FF408520121FFF75FFD08BDCC
:102840004552524F523A2000805300080A000000BF
:1028500030B4A125029C0574012542EA012145748A
:10286000418200218182C482224630BC1946FFF792
:10287000D4BC000070B50646D0F888050025C469B0
:10288000617839B13046FFF7A5FC61783046FFF733
:1028900029FD6570217839B13046FFF79BFC21781E
:1028A0003046FFF71FFD2570D6F88805C06920B1B6
:1028B00002F0FEFBD6F88805C561054800F110015D
:1028C000041D0EC984E80E0005704580002070BD0F
:1028D0001C0000202DE9FE4F0546002671A002F0E5
:1028E00049FA77A002F046FAFF231A46194628460D
:1028F000FFF7D6FC0746FF2801D0022F09D371A0AD
:1029000002F038FAD5F88805016871A002F032FAB1
:1029100061E00146284601F03BFA10B10220BDE813
:10292000FE8F342002F0FCFBD5F888150446C86100
:10293000200027D03421FDF77DFC0720A070B5F8DA
:102940003005DFF8B481DFF8B4914FF0000B4FF0A1
:10295000030A01281BD0062826D0B0F5937F31D07A
:10296000A0F500718E3931D1B5F82E05A0F5806142
:102970005E392BD162A002F0FDF951A002F0FAF904
:1029800004211CE04FA002F0F5F966A021E0B5F8A3
:102990002E05B0F5016F19D16CA002F0EBF948A03B
:1029A00002F0E8F901210AE0B5F82E0579280DD1E9
:1029B0006DA002F0DFF942A002F0DCF9022188F8F4
:1029C000001014E0B5F82E05792808D088F800B07A
:1029D0006CA002F0CFF93AA002F0CCF99EE76FA00C
:1029E00002F0C8F936A002F0C5F988F800A007EB9C
:1029F0008700C4F8309000EBC70084F802B005EB04
:102A0000400784F805B097F84E05A076B7F8500552
:102A1000208397F85205A0830A2801D20A20A083B8
:102A200097F84605022801D8804636E04FF00208A4
:102A300007EBC60999F84E15080614D521712846EA
:102A4000FFF7ACFB60700146B9F8500595F81D35ED
:102A5000CDE9003A029095F81C352279284600F01D
:102A6000A9FD617813E0E1702846FFF797FB20701D
:102A70000146B9F8500595F81D35CDE9003A0290A8
:102A800095F81C35E278284600F094FD2178002264
:102A9000284600F05DFD761CF6B24645C8D30020FE
:102AA0003DE7000073746172742066696E6420698A
:102AB0006E74657266616365206E6F77000000005A
:102AC0000A0000004445425547203A20000000001B
:102AD00043616E6E6F742046696E64207468652071
:102AE000696E7465726661636520666F7220257316
:102AF00020636C6173732E001C000020BD2B000846
:102B0000576972656C65737320416E64726F696496
:102B1000205053322064657669636520666F756E58
:102B20006421000043616E6E6F7420616C6C6F6392
:102B3000617465206D656D6F727920666F722048D3
:102B400049442048616E646C6500000057697265F5
:102B500064205053322056312064657669636520C5
:102B6000666F756E6421000057697265642050536A
:102B7000322056322064657669636520666F756E13
:102B80006421000050726F746F636F6C206E6F74FD
:102B900020737570706F727465642E00576972656A
:102BA0006C657373205043205053322064657669FE
:102BB000636520666F756E642100000010B50146E4
:102BC000D0F88805C069028B402A01D940220283CF
:102BD000054A42614FF42072083001F58E71FFF70B
:102BE000C5FD002010BD0000D80A002070B5D0F847
:102BF0008805164DC469287830B3228B22B3A068AB
:102C000010B3134904F10800FFF7B7FD218B884288
:102C10001AD12878012806D0022808D003280AD023
:102C200004280CD00EE00A4801F0CAFD0AE008486A
:102C300001F082FE06E0064801F0E2FF02E00448EF
:102C400001F036FF002070BD022070BD1C00002086
:102C5000D80A00202DE9F8430646D0F8880500255B
:102C60000127C4694FF004084FF00709A07807282E
:102C70006DD2DFE800F004156C6C35304400216B38
:102C800030468847050009D032A002F073F833A01F
:102C900002F070F837A002F06DF811E0A77056E06E
:102CA000207E00900022012130466369FFF7D0FDAD
:102CB00005004FF0050107D0012D07D0032807D0EC
:102CC00084F80290022542E0A17040E0A77000E085
:102CD000A17000253BE0D6F8D005C00735D136E01D
:102CE0006378227E3046616900F080FB0620A07088
:102CF000D6F8D0052062002084F8240027E061780F
:102D0000304600F0C8FB01286178304604D000F05E
:102D1000C2FB052814D01AE000F0A8FB94F8241098
:102D2000A9B9A0B1A06890B1228B04F10800616933
:102D3000FFF745FD84F824703046FFF753FC06E0AA
:102D4000A17E3046FFF74BFA08B984F80280284686
:102D5000BDE8F8834552524F523A2000484944207A
:102D6000436C61737320496E6974206661696C6598
:102D7000640000000A000000D0F88815C9698A784C
:102D8000062A08D1D0F8D0050A6A801A8A8B9042A8
:102D900001D30420887000207047212303740A2384
:102DA000437442EA0121418200218182C1820A46A4
:102DB000FFF733BA212202740B224274002209B1B8
:102DC000428201E0012141828282C28200221146B8
:102DD000FFF723BA2DE9F84F0125017E04460B26A3
:102DE000092728464FF007084FF0050A4FF00D0954
:102DF0000C2919D2DFE801F0BD060E26313C4860EF
:102E00006B7C899A627904F110012046FFF736FA4B
:102E1000022012E06179204600F03DFB012804D039
:102E2000042871D002287FD0A3E0207CE18A00F042
:102E3000800021B180283AD10320207699E08028B3
:102E400014D02EE0D4F8D005E0812379A289204661
:102E5000A168FFF7D3F90420EFE72179204600F0BD
:102E60001AFB012802D0052840D056E0277680E0E2
:102E700000906379A2892046A168FFF7EBF9D4F8A6
:102E8000D005E0810620D8E76179204600F003FBF9
:102E9000012806D0052807D0022808D0042809D028
:102EA00067E084F8188064E00C2020761EE084F847
:102EB00018A05EE026765BE00022237911462046CA
:102EC000FFF79CF9D4F8D005E0810820B5E7217917
:102ED000204600F0E0FA012804D0042824D0052878
:102EE00004D046E084F81890002542E0032540E035
:102EF00000900022637911462046FFF7ABF9D4F821
:102F0000D005E0810A2098E70EE06179204600F0C4
:102F1000C2FA012804D00228A8D0042804D028E04E
:102F2000002584F8189024E0267622E0617E491C72
:102F3000C9B26176022902D82076A07019E0D4F8CF
:102F4000E025062120469047002565760AA001F07D
:102F500011FF0BA001F00EFF13A001F00BFF617930
:102F60002046FFF7BFF921792046FFF7BBF925700E
:102F700002252846BDE8F88F4552524F523A2000AC
:102F8000436F6E74726F6C206572726F723A204478
:102F90006576696365206E6F7420726573706F6EFD
:102FA00064696E67000000000A0000002DE9FE431E
:102FB0000126417800250D270446B04600F58E799C
:102FC00008290CD2DFE801F0042C4B8DADC7D9F5F0
:102FD00008212046FFF7E0F910B1032806D0FCE0F5
:102FE00094F82D05A07184F801804FE07EA001F0D7
:102FF000C1FE7FA001F0BEFE8AA001F0BBFE94F8E6
:103000001E05401CC0B284F81E05032870D86179E3
:103010002046FFF767F921792046FFF763F998E02A
:1030200012212046FFF7B8F910B1032812D0D4E0DE
:10303000B4F830157CA001F09DFE7AA001F09AFE54
:10304000B4F82E157BA001F095FE76A001F092FE5B
:1030500002206EE064A001F08DFE79A04CE0012119
:10306000204600F00FFF10B1032829D0B5E0022060
:10307000FFF713F9414684F81C8580A001F07AFE21
:1030800068A001F077FE03206070A07994F81D1508
:103090000091CDE9015094F81C3521798022204619
:1030A00000F088FAA07994F81D150091CDE901503F
:1030B00094F81C3561790022204600F07BFA8CE000
:1030C00049A001F057FE73A001F054FE55A001F095
:1030D00051FE7DA001F04EFE52A001F04BFE277084
:1030E0005FE009212046FFF72BF910B9042020E00A
:1030F0000FE003281FD070E001F03CFE49A001F072
:1031000039FE94F81E05401CC0B284F81E05032841
:1031100016D96DA001F02EFE42A001F02BFE277003
:103120005BE0B4F83A152046FFF70AF90028E0D131
:103130000520607051E02CA001F01CFE7248DBE716
:1031400061792046FFF7CEF821792046FFF7CAF8CB
:103150006570257041E094F83415062559B1FF23B8
:103160004A462046FFF744F910B1032803D034E063
:10317000494666A010E06AA016E094F835150725C8
:10318000A9B1FF234A462046FFF732F910B10328C0
:103190000DD022E0494667A001F0ECFD21A001F02E
:1031A000E9FD657019E004E001F0E4FDF6E765A0D3
:1031B000FAE794F8361599B1FF234A462046FFF7FF
:1031C00017F910B103280BD007E0494661A001F0C0
:1031D000D1FD14A001F0CEFD00263046BDE8FE83EF
:1031E00061A001F0C7FDF4E74552524F523A20006A
:1031F000436F6E74726F6C206572726F723A204703
:1032000065742044657669636520446573637269FB
:1032100070746F7220726571756573742066616970
:103220006C6564000A0000005049443A2025786823
:10323000000000005649443A20257868000000004C
:10324000436F6E74726F6C206572726F723A2047B2
:1032500065742046756C6C2044657669636520440E
:10326000657363726970746F7220726571756573CE
:1032700074206661696C65640000000041646472DA
:103280006573732028232564292061737369676E31
:1032900065642E00436F6E74726F6C206572726F7E
:1032A000723A2044657669636520536574204164F1
:1032B00064726573732072657175657374206661DD
:1032C000696C656400000000436F6E74726F6C205F
:1032D0006572726F722C20446576696365206E6F2B
:1032E0007420526573706F6E64696E6720506C65F0
:1032F00061736520756E706C756720746865204415
:1033000065766963652E0000685200084D616E7530
:103310006661637475726572203A2025730000003F
:103320004D616E756661637475726572203A204EE8
:103330002F41000050726F64756374203A2025732A
:103340000000000050726F64756374203A204E2FA5
:103350004100000053657269616C204E756D6265B5
:1033600072203A202573000053657269616C204E0B
:10337000756D626572203A204E2F410070B50E4681
:10338000040018D084F8D8250025C4F88855C4F85E
:103390008C5504F5A464FCF78AFFE5702570657010
:1033A000A570A4F5A4640EB1C4F8E065204600F051
:1033B00085F8002070BD05A001F0DCFC05A001F03F
:1033C000D9FC09A001F0D6FC022070BD4552524F35
:1033D000523A2000496E76616C696420486F7374BC
:1033E0002068616E646C65000A0000007FB51C46B1
:1033F000012501AE0023009586E80E0003232A462E
:10340000214600F0C6F804B0002070BD10B5D0F819
:10341000DC05FDF724F9BDE81040FFF725B80121D0
:1034200080F82015002180F8211580F82215084623
:10343000704710B50446012084F82105002084F867
:10344000200584F82305204600F09AF821792046CB
:10345000FEF748FF61792046FEF744FF002010BDCB
:1034600010B5C820FCF7BEFF002010BDD0F8DC0569
:10347000FDF7EFB810B50124D0F8DC05FDF7D3F85F
:1034800020B1012805D0022803D101E0002400E08A
:103490000224204610BDD0F8DC05FDF7D3B8D0F8E3
:1034A000D015491CC0F8D01501780B2905D1D0F8EA
:1034B0008815002901D089690847704710B504466E
:1034C00090F8D80501281CD10F484FF0A0410222E6
:1034D000C0F8DC43C4F8DC0501600821417101211A
:1034E000C1710021817142728172FDF708FA08B141
:1034F000FCF71AFF0448FDF793F80146204600F058
:1035000024F8002010BD0000F8060020FEB508AF2A
:1035100097E870008DE87000D0F8DC05FDF7B1F891
:10352000BDE8FE40FEF7A0BF002180F823157047DC
:10353000012180F82315704710B5D0F8DC05FDF7A0
:1035400061FABDE81040FEF78FBFC0F8D015704794
:10355000D0F8DC05C1EB011100EB8100C17D11B198
:1035600080F83C2001E080F83D200020704710B535
:10357000D0F8DC05FDF74DFABDE81040FEF774BF4A
:1035800010B5D0F8DC05FDF75AFABDE81040FEF79B
:103590006BBF2DE9FF410DF1280898E8F0008DE898
:1035A000F000D0F8DC05FDF7BBF804B0BDE8F04151
:1035B000FEF75ABFFEB508AF97E870008DE87000BF
:1035C000FFF7A4FF0020FEBD2DE9F74F82B04FF0BA
:1035D000000B029DD84605F5A765F9B108780923C7
:1035E0000C46092800D02370087828704878687045
:1035F0004888FF2801D94FF48070688008792871C5
:10360000487968718879A871C879E871207A287238
:10361000092A7CD99946ADF8003061E0022005B056
:10362000BDE8F08F69462046FEF782FE04464078EA
:10363000042852D12078092801D084F8009008EBA2
:10364000880101EBC80005EB400A20788AF80A00DF
:1036500060788AF80B00A0788AF80C00E0788AF885
:103660000D0020790AF10A06022800D302203071E9
:1036700061797171A179B171E179F171217A317258
:1036800000271BE069462046FEF752FE04464078BC
:10369000052813D17079012804D1B07902282DD0E2
:1036A00003282BD0072020700AEBC70122461431D3
:1036B000029800F06BF87F1C8346FFB23079B84265
:1036C00004D96888BDF800108842DBD83079B84248
:1036D00011D808F1010000F0FF08B8F1020F04D280
:1036E0006888BDF8001088429CD82879022800D349
:1036F000022040450BD9032091E708E0F07900282B
:10370000D2D120780928CFD084F80090CCE7584651
:1037100085E770B500F22653002541B30C781C7084
:103720004C785C704C885C800C791C714C795C71B5
:103730008C799C71CC79DC7190F81D050826C0B19C
:10374000012816D002281DD00325082A0DD9088982
:1037500018814889588188899881887B9873C87BAB
:10376000D873087C1874487C5874284670BD0220B1
:1037700070BD082CE9D0102CE7D0202CE5D0402CCF
:1037800002D1E2E7082CE0D0DE71DEE770B51378F5
:103790000B7053784B7093788B70D478CC7093887F
:1037A0008B800546927900208A714FF480660BB1B8
:1037B000B34200D9032095F81D1521B101291BD072
:1037C00002292ED00EE004F00301022907D0A5073C
:1037D0000AD001290BD0E143890708D002E0B3F5F4
:1037E000007F00D9032070BD402BFBD870BD002A9C
:1037F000F8D0102AF6D870BD04F003010229F3D0E6
:10380000A507F1D0012907D0E1438907EAD1002AB1
:10381000E8D0B342E6D270BD002AE3D0102AE3D943
:10382000E0E7A10707D0E1438907DBD1002AD9D01F
:10383000082BD7D870BD082BD4D170BD2DE9FE431D
:103840004FF0020804468DF8008094F821150020FE
:10385000012901D10321217021780D260827002597
:103860000C291DD2DFE801F0061D47FD1C7CFC9AE7
:10387000A4AFCDFB94F82005002811D0ABA001F037
:1038800079FAB0A001F076FA01202070C820FEF786
:1038900004FD2046FFF750FE84F81C55C4F8D455AB
:1038A0003AE194F82305012814D0D4F8D405B0F5F2
:1038B0007A7F19D994F81F05401CC0B284F81F05FF
:1038C000032874D9A0A001F055FA9EA001F052FA85
:1038D000267021E1A7A001F04DFA9AA001F04AFA62
:1038E00084F81F554046E2E00A30C4F8D4050A20A7
:1038F000FEF7D3FC10E1D4F8E02512B104212046F4
:1039000090476420FEF7C9FC2046FFF7B3FD84F81A
:103910001D050520207000212046FEF73FFC607148
:1039200080212046FEF73AFC20710146A07994F8E8
:103930001D250092CDE9015094F81C3580222046C7
:10394000FFF738FEA07994F81D150091CDE90150DC
:1039500094F81C35617900222046FFF72BFEDBE04E
:103960002046FFF723FB8DF800009DF8000000289B
:1039700096D187A001F0FEF972A001F0FBF984F85E
:10398000245594F83705012801D007208FE085A041
:1039900001F0F0F96BA001F0EDF906E0D4F8E025B4
:1039A000002A96D00121204690472770B4E026E0F7
:1039B00094F83D15204600F073FA002889D10920BB
:1039C000207082A033E094F83F054FF00A0580068E
:1039D00015D50121204600F071FA8DF800009DF800
:1039E000000020B19DF80000032802D094E07EA0E2
:1039F00000E085A001F0BEF952A001F0BBF92570EE
:103A00008AE0D4F88C1589B1C4F8885594F8471524
:103A100004EB8002D2F8782512798A420AD104EBAD
:103A20008000D0F87805C4F8880508E081A001F08E
:103A3000A1F910E0401CC0B20428E9D3284610B315
:103A400081682046884768B12670D4F888050168E7
:103A500080A001F08FF93BA001F08CF95CE034E02C
:103A600014E039E006202070D4F88805016881A0B0
:103A700001F080F933A001F07DF9D4F8E0250321AD
:103A80002046904748E026707FA0D0E7D4F888050C
:103A9000A8B10169204688478DF800009DF8000014
:103AA00020B19DF80000022803D035E00B202070E3
:103AB00032E026707EA001F05DF97FA0B7E72670A6
:103AC0007BA001F057F986A0B1E7D4F8880518B3B8
:103AD0004169204688471FE084F821552046FCF7BD
:103AE000E6FBD4F8880520B1C16820468847C4F8B1
:103AF0008855D4F8E02512B10521204690477EA0D4
:103B000001F038F90FA001F035F994F822050128E9
:103B100005D02046FFF72BFD0020BDE8FE8384F88A
:103B20002255204600F0D8F9F6E700005553422010
:103B300044657669636520436F6E6E656374656482
:103B4000000000000A0000005553422052657365D2
:103B500074204661696C65642C20506C65617365E6
:103B600020756E706C756720746865204465766991
:103B700063652E0055534220446576696365205283
:103B80006573657420436F6D706C657465640000C7
:103B9000456E756D65726174696F6E20646F6E65D8
:103BA0002E0000005468697320646576696365209F
:103BB000686173206F6E6C79203120636F6E666967
:103BC0006775726174696F6E2E00000044656661EE
:103BD000756C7420636F6E66696775726174696F66
:103BE0006E207365742E00004465766963652072EB
:103BF000656D6F74652077616B65757020656E61AA
:103C0000626C65640000000052656D6F746520771A
:103C1000616B657570206E6F7420737570706F7254
:103C200074656420627920746865206465766963D0
:103C3000650000004E6F20436C61737320686173F0
:103C4000206265656E20726567697374657265646C
:103C50002E000000446576696365206E6F742073E2
:103C60007570706F7274696E6720257320636C6164
:103C700073732E00257320636C61737320737461FA
:103C8000727465642E0000004E6F20726567697360
:103C9000746572656420636C61737320666F722053
:103CA00074686973206465766963652E000000009E
:103CB0004552524F523A2000446576696365206E42
:103CC0006F7420726573706F6E64696E6720506CDC
:103CD0006561736520556E706C75672E000000007D
:103CE000496E76616C696420436C61737320447221
:103CF000697665722E00000055534220446576694E
:103D0000636520646973636F6E6E656374656400D8
:103D100010B502460020B1B1D2F88C35042B07D281
:103D200002EB83045B1CC2F88C35C4F8781510BD17
:103D300007A001F01FF808A001F01CF80DA001F089
:103D400019F8022010BD02A001F014F80AA0F3E750
:103D50004552524F523A20004D617820436C6173B6
:103D600073204E756D62657220726561636865646B
:103D7000000000000A000000496E76616C69642052
:103D8000436C6173732068616E646C6500000000B1
:103D900070B5054690F83C050C460026A04227D990
:103DA00085F82445214618A000F0E4FF1EA000F08D
:103DB000E1FF04EB840000EBC40005EB40041BA012
:103DC00094F8471504F2475400F0D4FF16A000F011
:103DD000D1FF617819A000F0CDFF13A000F0CAFF59
:103DE000A1781AA000F0C6FF0FA000F0C3FF09E001
:103DF0001AA000F0BFFF1BA000F0BCFF0AA000F05B
:103E0000B9FF0226304670BD537769746368696EE6
:103E10006720746F20496E7465726661636520283F
:103E200023256429000000000A000000436C617330
:103E300073202020203A20257868000053756243C3
:103E40006C617373203A20257868000050726F749B
:103E50006F636F6C203A2025786800004552524FFE
:103E6000523A200043616E6E6F742053656C656337
:103E700074205468697320496E7465726661636565
:103E80002E0000008278012A06D100220274052348
:103E9000437441828282C28200221146FEF7BDB97C
:103EA0008278012A06D100220274092343744182D8
:103EB0008282C28200221146FEF7AFB98278012ABF
:103EC00006D1002202740323437441828282C2829B
:103ED00000221146FEF7A1B910B50446FFF747FBD3
:103EE00001212046FFF7BCFA002010BD01290AD0AD
:103EF0000548022906D0042903D0052903D103214E
:103F000000E00121017070470800002070B50D46E7
:103F10000446C2F3072104981E4601291BD0E0681D
:103F200040F04000E060204600F032F8C6F3072180
:103F30000029A16B26D021F48031A163C5F307418C
:103F4000012907D1A16841F00601A160A16841F0F3
:103F50002001A16070BDA16B21F48031A163E168F3
:103F60000A4A1140E160E16821F44011E160C0B209
:103F7000012803D1E06840F48010E060204600F0A2
:103F800007F8DBE741F48031D7E70000BFFFBDFF52
:103F900008B500214FF070620091009B5B1C0093FC
:103FA00093420CD80369002BF7DA0091016941F0C4
:103FB000010101610099491C0091914201D903203E
:103FC00008BD0169C907F5D1002008BD816821F04D
:103FD000010181600020704700EB4110064AC0F8E3
:103FE0001025D0F8001521F0804141F00041C0F8C3
:103FF00000150020704700000000088008B5D0F8C8
:10400000402422F02E020092D20405D4012909D1C5
:10401000009941F4805103E021B9009921F48051C5
:10402000C0F84014002008BD816841F001018160A2
:104030000020704708B500214FF070620091009B8E
:104040005B1C009393420AD80369002BF7DA0091B6
:10405000102101610099491C0091914201D903206E
:1040600008BD0169C906F5D4002008BD18B50022B5
:104070004FF070630092009C641C00949C420CD82A
:104080000469002CF7DA0092202242EA81110161D2
:104090000099491C0091994201D9032018BD01697A
:1040A0008906F5D4002018BDD0F8080480B2704706
:1040B00008B5D0F840040090C0F3414008BD406905
:1040C00000F00100704738B5002200EB411100926A
:1040D000D1F80025D1F80035C2F38142D1F804456A
:1040E000DB0F8568E40FAD0605D524B93BB3012A83
:1040F00025D0032A23D04FF47A736AB1022A0BD059
:10410000D1F8002542F08042C1F80025D0F8100413
:1041100010F47F0F2BD00CE0D1F8002542F0804244
:10412000C1F800258268920603D4C06A10F47F0F9C
:1041300007D0D1F8000540F00040C1F8000500208C
:1041400038BDD1F8000520F00040C1F80005D1F8D5
:10415000000540F00040C1F800050098401C0090A8
:104160009842ECD8D1F800050028F6DBE7E7D1F853
:10417000000520F00040C1F80005D1F8000540F02E
:104180000040C1F800050098401C00909842D6D825
:10419000D1F800050028F6DBD1E700002DE9F04357
:1041A0001E46DDE90785002700EB41147B1EDDF884
:1041B0002490C4F8083515B3012D3CD0022D1ED033
:1041C000032D31D001270023C4F80435D4F80C3571
:1041D00043F00203C4F80C35D0F8183401F00F0C8A
:1041E000012101FA0CF10B43C0F81834816941F048
:1041F0000071816111062BD54FF4004129E040F296
:104200009D43C4F80C35130605D500BFD4F80C3512
:1042100043F4807319E0DFF898C06045D3D1D4F837
:104220000C3543F0600310E040F29D63C4F80C3598
:104230001306EBD4C7E740F22523C4F80C35130668
:10424000C1D5D4F80C3543F4C073C4F80C35BAE7C3
:104250000021FFF72DFFB8F1020F04D1022802D090
:104260004FF4003000E000204FF0FE5303EA865385
:104270004FF4F04606EAC22213434FF4402202EA0A
:1042800085421343C9F30A0213430B43034343F428
:104290008010C4F80005032D01D0012D05D1D4F8FC
:1042A000000540F00050C4F800053846BDE8F08332
:1042B00000000440D0F8140480B27047F8B5964D61
:1042C0004C784FF48073A84216D1012A02D00D79A0
:1042D0007DB111E08D7C0DB1022D0DD18D795DB9CF
:1042E00000EB4415D5F80C6526F07006C5F80C6592
:1042F00002E04D79012D10D08D79012D11D00E6A7B
:1043000096B38D8A77197F1EB7FBF5F7BFB29F4230
:1043100035D91F462B02CB6131E02146FFF75CFE09
:10432000F7E0CB7801270BB18B8A25E08B7C012B42
:1043300002D0012A1BD01EE00B6ABC2B0CD98B8A41
:10434000CB610B62CB68012B04D0022B02D001237E
:10435000CB601AE00223FBE7CB61CB68012B04D0D2
:10436000022B02D00423F3E708E00323F0E78B8A53
:104370000D6A9D4200D80B6ACB6106E00127CB781D
:1043800013B18B8A7B43F7E7CE61CB694FF0C04610
:10439000C3F312056FF0604303EAC7431D438B7DEF
:1043A00006EA43731D4300EB4413C3F8105512B1E2
:1043B0008C69C3F81445D0F80844D3F8005544F389
:1043C000000425F00055C3F80055D3F80055641CCF
:1043D00045EA4474C3F800458D790024012D0DD0C1
:1043E000C3F80445D3F8005525F080450095CD78F5
:1043F000002D009D58D045F4004557E04E7C0D7CC3
:104400004FF0004747EAC6163543C3F80455D3F8C2
:104410000C5545F06005C3F80C55CD79012D0DD133
:10442000CD785DB9D3F8045545F48035C3F804550B
:10443000D3F80C5545F04005C3F80C558D7C012D83
:1044400001D0032DCED1CD79012D08D1CD78012D0C
:1044500005D1D3F8045545F48035C3F804558D7C57
:10446000012DBFD1CD78002DBCD1CD68012D0CD050
:10447000022D0FD0032D12D0042DB3D1D3F8045543
:1044800045F44045C3F80455ACE7D3F8045545F46A
:104490000045F7E7D3F8045545F00E05F2E7D3F8E9
:1044A000045545F48045EDE725F4004545F0004509
:1044B0000095C3F8005562BBCA7852BB0A6A42B382
:1044C000CB7933BB8B7C33B1012B0FD0022B02D0C5
:1044D000032B17D10AE0D21CC36AC2F38F029BB22E
:1044E00093420FD2826942F020020AE0D21CD0F837
:1044F0001034C2F38F029BB2934203D2826942F01E
:104500008062826100940A8C93B24A78896900F0D3
:1045100041F90020F8BD000000000440F0B500257E
:104520000E4604462F46C0F8005E806B40F4001033
:10453000A063A06B20F40020A063A06B20F4802077
:10454000A063E068400602D4300E012804D0D4F8FD
:10455000000420F0040103E0D4F8000440F004015A
:104560002046C4F800141021FFF780FD00B101259A
:104570002046FFF75FFD00B101250020411EC6F374
:10458000072206E004EB4013C3F80815C3F80C75C6
:10459000401C8242F6D8A76161610E48844205D171
:1045A000401560620C48A0620C4804E08020606204
:1045B0000B48A0620B48C4F80001C6F3074018B9C5
:1045C000A06940F01000A061A06907490843A061FC
:1045D0002846F0BD00000440000200010003E00096
:1045E00080006000E0004000080020A3D0F8002414
:1045F00022F00302C0F80024D0F8002401F00303E5
:104600001A43C0F80024012903D0022904D0012054
:1046100070474BF6803101E041F27071C0F804142C
:104620000020704700EB4110D0F80815D0F80C05B9
:1046300008407047416980690840704730B50346BB
:104640000846940802F00301002203F5805303E0BA
:104650001D6840F8045B521CA242F9D300290BD01C
:104660001C680022D50024FA05F3491E521C0904D7
:1046700000F8013B090CF5D130BD38B50446D0F83F
:10468000400420F02E00009040F48070C4F84004F4
:10469000642004F58864FBF7A5FE009820F4807080
:1046A00020600A20FBF79EFE002038BD70B504464E
:1046B000C068002520F0C040E060012901D079B138
:1046C00020E0E06840F00050E0600A20FBF78AFE3E
:1046D00060690A3510F0010F10D1C82DF5D30DE037
:1046E000E06840F08040E0600A20FBF77BFE6069F4
:1046F0000A3510F0010F01D0C82DF5D3C82D01D017
:10470000002070BD012070BD38B50025044600951D
:10471000806820F00100A06010212046FFF7A6FC71
:1047200000B101252046FFF785FC00B101250020DE
:1047300004EB4011D1F8002522F0802242F08042A3
:10474000C1F80025401C0F28F2D900204FF47A73DD
:1047500004EB4011D1F8002522F4004242F040421F
:10476000C1F80025009A521C00929A4203D8D1F851
:104770000025002AF6DB401C0F28E9D94FF0FF3056
:10478000C4F814046061A06840F00100A0602846ED
:1047900038BD000010B5029C74B9DB1C9C0800EB0E
:1047A0000230002300F5805004E000BF51F8042BD4
:1047B00002605B1CA342F9D3002010BDFEE700009D
:1047C00010B50446C1785B48002201702179417020
:1047D00061788170A178C170A079C0F3001155484B
:1047E000801E00F02BFDA0790122C0F380115148FA
:1047F000801E00F023FDA0790222C1094D48801ED1
:1048000000F01CFDA0790322C0F340114948801E2E
:1048100000F014FD607900F00F000F280CD0C107E4
:10482000C0F341001DD0002870D0012872D00228AA
:1048300077D0032829D176E03E4804220021801E4B
:1048400000F0FCFC3B4805220021801E00F0F6FC35
:10485000384806220021801E00F0F0FC07220021CB
:104860000FE030B1012806D0022806D003280CD171
:1048700005E0042204E0052202E0062200E007220F
:1048800001212C48801E00F0D9FCA0790822C0F339
:1048900080012848801E00F0D1FCA0790922C0F3D5
:1048A000C0012448801E00F0C9FCA0790A2200F053
:1048B00001012048801E00F0C1FCA0790B22C0F34A
:1048C00040011C48801E00F0B9FC60790C22C0F346
:1048D00000111848801E00F0B1FC60790D22C0F371
:1048E00040111448801E00F0A9FC60790E22C0F32C
:1048F00080111048801E00F0A1FC60790F22C109D0
:104900000C48BDE81040801E00F098BC042202E074
:1049100000E006E0062207480121801E00F08EFC20
:10492000A9E7062200E0042202480121801E00F0CF
:1049300085FCA4E72000002010B5044601785B4800
:104940000022017061784170E17881702179C17035
:10495000A079C0F300115548801E00F06FFCA079CB
:104960000122C0F380115148801E00F067FCA0793D
:104970000222C1094D48801E00F060FCA07903228C
:10498000C0F340114948801E00F058FC607900F0E7
:104990000F000F280CD0C107C0F341001DD0002824
:1049A00070D0012872D0022877D0032829D176E070
:1049B0003E4804220021801E00F040FC3B480522B6
:1049C0000021801E00F03AFC384806220021801E9B
:1049D00000F034FC072200210FE030B1012806D09E
:1049E000022806D003280CD105E0042204E00522A9
:1049F00002E0062200E0072201212C48801E00F080
:104A00001DFCA0790822C0F380012848801E00F018
:104A100015FCA0790922C0F3C0012448801E00F0D3
:104A20000DFCA0790A2200F001012048801E00F050
:104A300005FCA0790B22C0F340011C48801E00F049
:104A4000FDFB60790C22C0F300111848801E00F0B5
:104A5000F5FB60790D22C0F340111448801E00F070
:104A6000EDFB60790E22C0F380111048801E00F02B
:104A7000E5FB60790F22C1090C48BDE81040801E9B
:104A800000F0DCBB042202E000E006E0062207485A
:104A90000121801E00F0D2FBA9E7062200E00422DB
:104AA00002480121801E00F0C9FBA4E7200000207D
:104AB00010B50446807910B9E17901B980204F49D9
:104AC0000870207A10B9627A02B98020C0F1FF0024
:104AD0004870A07A10B9E27A02B980208870207BF1
:104AE00010B9627B02B98020C0F1FF00C870A078C5
:104AF000042200F001014148801E00F09FFBA078D5
:104B00000522C0F3C0013D48801E00F097FBA0784D
:104B10000622C0F340013948801E00F08FFBA078C8
:104B20000722C0F380013548801E00F087FBA07883
:104B30000022C0F340113148801E00F07FFBA078B6
:104B40000322C0F300112D48801E00F077FBA078EF
:104B50000122C0F380112948801E00F06FFBA0786D
:104B60000222C1092548801E00F068FBE0780A2275
:104B700000F001012148801E00F060FBE0780B226C
:104B8000C0F340011D48801E00F058FB2079FF282B
:104B90002FD0002119480822801E00F04FFB6079B9
:104BA000FF2828D0002115480922801E00F046FB6E
:104BB000E0780E22C0F300111048801E00F03EFB8A
:104BC000E0780D22C0F340110C48801E00F036FB47
:104BD000E0780F22C0F380110848801E00F02EFB01
:104BE000E0780C22C1090548BDE81040801E00F0A5
:104BF00025BB0121CEE70121D5E7000020000020E0
:104C000010B50446C1785A480022017021794170DC
:104C100061798170A179C170607800F00101544818
:104C2000801E00F00BFB60780322C0F34001504867
:104C3000801E00F003FB60780122C0F380014C4825
:104C4000801E00F0FBFA60780222C0F3C0014848E1
:104C5000801E00F0F3FA20780A22C0F300114448C5
:104C6000801E00F0EBFA20780B22C0F34011404880
:104C7000801E00F0E3FA20780822C0F380113C483F
:104C8000801E00F0DBFA20780922C1093848801E16
:104C900000F0D4FA20780C2200F001013448801E84
:104CA00000F0CCFA20780D22C0F340013048801E7D
:104CB00000F0C4FA20780E22C0F380012C48801E38
:104CC00000F0BCFA20780F22C0F3C0012848801EF3
:104CD00000F0B4FAA07800F00F000F2811D0C1073F
:104CE000C0F3410022D070B3012837D002283CD055
:104CF00003283CD104221E480121801E00F09EFAA8
:104D00001BE01B4804220021801E00F097FA18487F
:104D100005220021801E00F091FA1548062200218C
:104D2000801E00F08BFA072200210FE038B1012825
:104D300007D0022808D0032819D1072205E0042251
:104D400003E0052201E007E0062201210848BDE852
:104D50001040801E00F072BA042200E006220448CF
:104D60000121801E00F06AFAEBE70622C3E710BDBE
:104D7000200000200FB4054B10B503A9044A029887
:104D800000F028F810BC5DF814FB000095500008F6
:104D9000780000200907090E002804DB00F1E0205C
:104DA00080F80014704700F00F0000F1E02080F858
:104DB000141D704702E008C8121F08C1002AFAD16A
:104DC00070477047002001E001C1121F002AFBD18B
:104DD000704700002DE9FF4F8DB09B460F460446FB
:104DE000002606E025280BD05A460F999047641CF0
:104DF000761C20780028F5D111B03046BDE8F08F40
:104E00000025A8460122984900E0054314F8013F17
:104E1000203B02FA03F00842F7D120782E2817D160
:104E200014F8010F45F004052A280ED06FF02F0268
:104E30002078A0F1300109290AD808EB880102EB9B
:104E4000410100EB0108641CF2E757F8048B641C75
:104E500020786C280DD004DC4C2812D06A2811D19F
:104E600004E074280DD07A280CD10AE045F400152E
:104E700007E0617845F48015814202D1641C05F594
:104E80008015641C2078692844D008DC0028B3D041
:104E9000582867D063280FD0642808D13AE07028DA
:104EA00065D0732812D075285AD078285AD05A461F
:104EB0000F999047761CD5E017F8040B8DF8000089
:104EC00000208DF80100E946012003E057F8049B1B
:104ED0004FF0FF3069074FF0000501D40AE06D1C68
:104EE00045450DDA8542FADB19F805100029F6D19F
:104EF00006E06D1C8542FCDB19F805100029F8D18D
:104F00002E4404E019F8010B5A460F9990476D1E84
:104F1000F8D2A7E00A200021CDE90801C5F302502C
:104F200002280CD001CFC117021E71F100020CDA69
:104F30000023D0EB030063EB01012D2208E0FF1DED
:104F400027F00707F7E80201EEE72A0504D52B2230
:104F50008DF8282001223CE0EA073AD02022F7E72A
:104F60000A2000E010200021CDE9080107E0102010
:104F7000002145F00405CDE908014FF00808C5F30C
:104F80000250022810D001CF00214FF0000A2A075A
:104F900020D52278702A0DD0DDE908C38CF0100CE2
:104FA0005CEA030C0CD015E0FF1D27F00707F7E8BB
:104FB0000201EAE740228DF828204FF0010A0CE0B8
:104FC00050EA010306D030238DF828308DF82920CF
:104FD000022292462278582A04D024A20DF12009F8
:104FE0000B9209E026A2F9E7DDE90823FBF7EAF8CE
:104FF0000B9B9B5C09F8013D50EA0102F4D1ADEB3B
:10500000090020300890680701D44FF00108089982
:10501000884503DD0898A8EB000000E000208046EA
:10502000002506E00AA85A46405D0F9990476D1C7E
:10503000761C5545F6DB04E030205A460F99904720
:10504000761CB8F10001A8F10108F5DC05E019F8BB
:10505000010B5A460F999047761C0899481E0890F4
:105060000029F4DC641CC4E6092801003031323325
:105070003435363738396162636465660000000094
:10508000303132333435363738394142434445467E
:105090000000000013B5054C642301226946206816
:1050A000FCF703FA0028F7D100981CBD000000208F
:1050B00010B5002821D0114B0022001F196803E011
:1050C000814203D80A4649680029F9D152B11368D0
:1050D000841A9C4204D1006818441060104602E013
:1050E000506000E0186039B102680B1A934203D196
:1050F0000B681A4402604968416010BD7C000020C2
:10510000FBF7B8FCFCF79CFEFCF7E8FDFCF724FE7F
:10511000FCF75AFEFCF73CFEFCF780FEFCE70000C3
:10512000F0B50B30154D20F007010024144A0FE0B4
:1051300003688B420BD38B4205D95E1A431847682C
:10514000C3E9006700E04368136002C004E0021D89
:1051500010680028ECD12046002802D1286808B148
:105160000020F0BD064A07481060074A121A22F0D4
:105170000702C0E9002401202860D7E78000002052
:105180007C0000201C0C0020180E002070B5254962
:10519000002601EB0014244901254988C14001F093
:1051A00001002070217B05293AD2DFE801F00337A6
:1051B000091D330088B3FBF725FA606002200AE07E
:1051C000FBF720FA6168401AA060217829B1B0F598
:1051D0007A7F25D90420207322E032281FD3FBF7E1
:1051E00011FA60600320F6E7FBF70CFA6168401AD9
:1051F000A06022784FF4C871012A04D088420FD3EE
:105200002573012070BD8842FAD2322808D925734F
:10521000022070BD2573032070BD01E000B9267324
:105220000020F9E7180B00201C00002002494988E3
:10523000C14001F0010070471C0000200123934091
:105240000288012902D09A43028070471A43FBE783
:105250000000000000000000010203040607080926
:105260000000000001020304436F6E74726F6C2033
:105270006572726F723A204765742044657669637F
:105280006520636F6E66696775726174696F6E2001
:1052900064657363726970746F722072657175658D
:1052A0007374206661696C6564000000436F6E74FE
:1052B000726F6C206572726F723A20476574204479
:1052C00065766963652044657363726970746F7293
:1052D000206661696C65642C20646174612062756C
:1052E000666665722073697A6520697373756500F7
:1052F000436F6E74726F6C206572726F723A2047E2
:10530000657420537472696E6720446573637269B3
:1053100070746F72206661696C65642C20646174BE
:1053200061206275666665722073697A65206973AB
:1053300073756500436F6E74726F6C206572726F67
:10534000723A2047657420636F6E66696775726193
:1053500074696F6E2044657363726970746F722034
:105360006661696C65642C20646174612062756695
:105370006665722073697A652069737375650000CC
:10538000436F6E74726F6C206572726F723A204751
:10539000657420484944205265706F7274204465DA
:1053A0007363726970746F72206661696C65642CD6
:1053B0002064617461206275666665722073697A23
:1053C000652069737375650048494400EC53000813
:1053D0000000002084000000B44D00087054000854
:1053E0008400002094110000C44D000884000020B7
:1053F000000000000000000001000000100000009C
:10540000000000000024F400000000007F7F7F7F88
:105410008D5100082D5200087F7F7F7F8D5100083D
:105420002D520008C853000803000000D5280008CA
:105430007528000881240008552C0008792D0008E3
:1054400000000000C8530008FF000000D528000835
:105450007528000881240008552C0008792D0008C3
:10546000000000000000000000000000000000003C
:040000050800018965
:00000001FF
